:100000002EC03DC03CC03BC03AC039C038C037C02C
:1000100036C03EC034C033C032C031C030C02FC043
:100020002EC02DC02CC007C5E0C4F1C4E4C4E9C48F
:10003000FCC406C5F4C4E3C7FAC753C860C869C89E
:100040000EC823C838C86FC87AC881C8A7C8AEC848
:10005000B5C8BCC8C9C8C8C882C88EC896C811244B
:100060001FBECFE5D4E0DEBFCDBF21E0A0E6B0E00B
:1000700001C01D92A132B207E1F7BBDC45CFC0CF72
:1000800083B7826083BF89B7816089BF7894089500
:100090001F920F920FB60F9211242F933F934F93FD
:1000A0005F936F937F938F939F93AF93EF93FF93A0
:1000B000E0911701F0911801F395F0931801E09386
:1000C0001701E83E83E0F80760F1209119013091B3
:1000D0001A0140911B0150911C0160911D0170910A
:1000E0001E0180911F0190912001A1E0B6DEE85E23
:1000F000F340E83EA3E0FA07C0F7209319013093DC
:100100001A0140931B0150931C0160931D017093D1
:100110001E0180931F0190932001F0931801E0933A
:100120001701FF91EF91AF919F918F917F916F9107
:100130005F914F913F912F910F900FBE0F901F90A5
:100140001895F8942091190130911A0140911B01E2
:1001500050911C0160911D0170911E0180911F0141
:100160009091200178940895E4EAF0E0128A138ACD
:10017000148A158A882339F0EAEBF0E0982F917001
:1001800092938695D9F708955F926F927F928F929E
:100190009F92AF92BF92CF92DF92EF92FF920F9316
:1001A0001F93CF93DF938091C800813059F028F0DE
:1001B000823079F08330A1F01AC082E08A95F1F79D
:1001C00000C07EC0E3E1F2E03197F1F700C000002B
:1001D00077C089E294E00197F1F700C0000070C099
:1001E000EFE3F6E03197F1F700C0000069C0A89A8C
:1001F000A99AAA9A80916300882309F44AC0C4EAA4
:10020000D0E00F2EFAEA6F2EF0E07F2EF02D4E0197
:100210005524539489918823C1F193DFF401A48C70
:10022000B58CC68CD78CE0A0F1A002A113A121DE71
:100230002539310541055105610571058105910596
:1002400011F108F15D827DDFF401A48CB58CC68CC0
:10025000D78CE0A0F1A002A113A10BDE2532324021
:1002600041055105610571058105910579F070F031
:1002700068DFF401248F358F468F578F60A371A3F9
:1002800082A393A303C01D8201C01D82C615D7059A
:1002900009F68FE396E00197F1F700C00000C79AD6
:1002A000939A929AC69A969A979AC09AC19AAB983C
:1002B0009498EFE1F3E03197F1F700C0000008C037
:1002C000A89AA99AAA9A80916300811198CFE1CF48
:1002D000DF91CF911F910F91FF90EF90DF90CF9022
:1002E000BF90AF909F908F907F906F905F90089598
:1002F0002F923F924F925F926F927F928F929F9236
:10030000AF92BF92CF92DF92EF92FF920F931F9323
:10031000CF93DF93CDB7DEB767970FB6F894DEBF04
:100320000FBECDBFD12CE12CF12C00E010E09801E4
:100330008983DA82EB82FC820D831E832F833887C8
:10034000623008F4A8C0A62FB0E01197A230B10522
:100350000CF4A1C0437041F4EDE170E050E030E0F6
:1003600020E090E080E008C0ECE170E050E040E088
:1003700030E020E090E080E0EE877F87588B498B6B
:100380003A8B2B8B9C8B8D8B862F817060FF09C0E5
:100390009FE1612C712C812CF0E01E8A1F8A912C28
:1003A00008C09EE1612C712C812CF0E01E8A1F8A0E
:1003B000912C592E811108C05FE1312C212C40E095
:1003C00030E020E090E008C05EE1312C212C40E0DC
:1003D00030E020E090E080E0452E49873A872B8787
:1003E0009C878D87E1E0E230D1F42E853F854889F6
:1003F00059896A897B898C899D89A980BA80CB803B
:10040000DC80ED80FE800F8118851EDD29833A8314
:100410004B835C836D837E838F83988735C0E83000
:10042000D0F4252D362D472D582D6F2F7E898F899D
:10043000992DA980BA80CB80DC80ED80FE800F8171
:10044000188502DD29833A834B835C836D837E8329
:100450008F83988719C0242D332D422D59856A85A5
:100460007B858C859D85A980BA80CB80DC80ED80E2
:10047000FE800F811885E8DC29833A834B835C83F7
:100480006D837E838F839887EF5F8E2F90E08A172E
:100490009B070CF4A8CF29813A814B815C816D8147
:1004A0007E818F81988567960FB6F894DEBF0FBE68
:1004B000CDBFDF91CF911F910F91FF90EF90DF9013
:1004C000CF90BF90AF909F908F907F906F905F90F4
:1004D0004F903F902F900895FF920F931F93CF93CB
:1004E000DF9300E111E0F8014581C6E8D0E04B83DD
:1004F000F38064818F2DFCDE2C833D834E835F83EC
:10050000688779878A879B876F2D8CE090E0EBDC8A
:10051000F80164818BE090E0E6DC6B818AE090E09A
:10052000E2DCDF91CF911F910F91FF90089581E060
:10053000809392001092C80080916700811101C0E1
:10054000C2980895EAECF0E01082128211821582BE
:1005500016821782108611861286138614861586D7
:1005600016861786108A118A128A138A148A0895A9
:1005700097B1907E8F71892B87B9369A3699FECFC5
:1005800084B195B10895AF92BF92CF92DF92EF926E
:10059000FF920F931F93CF93DF938091940081304C
:1005A000E9F4E2E9F0E086819781891302C0BFDFB8
:1005B0006CC0981748F420911201921718F4821712
:1005C00008F05EC0B4DF61C020911201281708F462
:1005D00057C0291708F054C0AADF57C0823029F548
:1005E00087E0C6DF2091950030919600821793072F
:1005F00004F1809193008823E1F0A3DDE2E9F0E0CB
:10060000A284B384C484D584E684F78400891189E4
:1006100030DC2738334141055105610571058105FD
:10062000910519F010F083DF30C0809193008111A3
:100630000DC0C2E9D0E081E0898383DD2A873B8752
:100640004C875D876E877F87888B998B809194001C
:100650008823D9F0809192008823B9F010929200FB
:10066000E8ECF0E0818180838091670081110DC00A
:1006700080916500882311F0C29A07C0C29805C016
:10068000809193008111E6CFD4CFDF91CF911F915C
:100690000F91FF90EF90DF90CF90BF90AF900895B3
:1006A00080911401823031F480911501837061F0E2
:1006B0008CE10895883020F480FF08C08FE1089510
:1006C00080FD06C08FE108958DE108958EE10895C3
:1006D0008EE10895CF93809163009FEF980F933040
:1006E00018F41092640039C09CEF980F933020F4F6
:1006F00091E09093640031C099EF980F933020F40B
:1007000092E09093640029C096EF980F933020F404
:1007100093E09093640021C093EF980F933020F4FE
:1007200094E09093640019C0803181F485E0809357
:10073000640083E08093620081E08093820046E061
:1007400050E084E090E024E0C3E01FC09DEE980FED
:10075000933018F496E09093640090E0029663E082
:1007600070E053DBC3E0C81BC093620081E080935C
:1007700082004C2F440F2EEF240F822F90E0042E86
:10078000000C550B841795075CF431E0FC01EC5527
:10079000FF4F30832F5F822F90E084179507B4F3CB
:1007A00080916400811120C0C23071F0C330A9F083
:1007B000C13009F0DEC0E2E8F0E0809112018183EF
:1007C00087E182831382D5C0E2E8F0E080911101D5
:1007D00081838BE382831382CCC0E2E8F0E08091D6
:1007E000100181831082C5C0823031F559DFC230DB
:1007F00081F0C330C1F0C13009F0BBC0909113014A
:10080000891708F4982FE2E8F0E09183828313823D
:10081000B0C0E2E8F0E08091140181838CE0828333
:1008200081E08383A6C0E2E8F0E080911501818336
:1008300083E6828313829DC0813021F58091DF00A1
:100840008093B400C23071F0C330A9F0C13009F018
:1008500090C0E2E8F0E08091E200818387E182834A
:10086000138287C0E2E8F0E08091E30081838BE3AC
:10087000828313827EC0E2E8F0E0818381E082839C
:10088000138277C0863011F5C23071F0C330A9F001
:10089000C13009F06EC0E2E8F0E080918800818309
:1008A00083E68283138265C0E2E8F0E080918700EE
:1008B000818383E6828313825CC0E2E8F0E080916A
:1008C0008600818381E08283138253C0843011F5D6
:1008D000C23071F0C330A9F0C13009F04AC0E2E87B
:1008E000F0E080919800818387E18283138241C088
:1008F000E2E8F0E080919900818387E182831382AE
:1009000038C0E2E8F0E080919400818382E0828345
:1009100013822FC0833019F580910E01C23079F017
:10092000C330A1F0C13029F590910D01891708F469
:10093000982FE2E8F0E09183828313821AC0E2E804
:10094000F0E081838BE38283138213C0E2E8F0E05E
:1009500080910F01818381E0828313820AC08530F8
:1009600041F4E2E8F0E080919700818382E38283A2
:100970001382CF910895880F825090E06A30B8F0CA
:10098000FC01EC55FF4F2DEC629F212D1124269583
:1009900026952695268B0196220F322F330F330F83
:1009A000230F621BFC01EC55FF4F668B0895FC0181
:1009B000EC55FF4F168A0196F5CFCF92DF92EF925A
:1009C000FF920F931F93CF93DF93E09164008E2FDC
:1009D000EE0F990BAA0BBB0BFC013196E830F10529
:1009E00008F043C0ED5EFF4F0994E0E1F1E0628161
:1009F000D181C0813DC0E0E1F1E06381D481C58156
:100A000037C0EDE0F1E06081D181C28131C0EFED0E
:100A1000F0E06381D481C081C093B40029C0E6E8CE
:100A2000F0E06281D181C08123C0E2E9F0E066811B
:100A3000D781C2811DC060917700C62FD62F18C004
:100A4000C09197000091830084E108028001112485
:100A500087E08EDD8017910724F4C29AD0E060E031
:100A600007C0C298D0E060E003C0C0E0D0E060E022
:100A700081E081DF6D2F82E07EDF6C2F83E07BDF02
:100A800080916300882309F46FC060918300809196
:100A9000620071DF69C08601899168019FEFC91A00
:100AA000D90A811124C08F855FDB8D81882311F0E5
:100AB000949A01C09498F7018589813011F4969A2F
:100AC00001C09698F7018489813011F4979A01C08A
:100AD0009798F7018389813011F4C09A01C0C098BA
:100AE000F7018289813011F4C19A01C0C1988A81CD
:100AF000811124C08A8938DB8885882311F0AB9A5C
:100B000001C0AB98F7018589813011F4C79A01C003
:100B1000C798F7018489813011F4939A01C09398A2
:100B2000F7018389813011F4929A01C09298F701FC
:100B30008289813011F4C69A01C0C698013011052E
:100B400039F020F00230110529F007C0A89817C02D
:100B5000A99815C0AA9818DB14C016DBF3E0CF16CD
:100B6000D1040CF498CF0DC0CAEAD0E000E010E048
:100B70000F2EF4EAEF2EF0E0FF2EF02D8DCF04DBE8
:100B80008ACFDF91CF911F910F91FF90EF90DF906F
:100B9000CF9008951F93CF93DF93CDB7DEB72797FC
:100BA0000FB6F894DEBF0FBECDBF29833A834B83C7
:100BB0005C836D837E8380EDE7D880E00BD98981EB
:100BC0001DEC819F912D1124969596959695292F30
:100BD000220F920F990F890FFDD88A81819F912D45
:100BE0001124969596959695292F220F920F990F7D
:100BF000890FF0D88B81819F912D11249695969520
:100C00009695292F220F920F990F890FE3D881E033
:100C1000E1D88C81819F912D11249695969596957A
:100C2000292F220F920F990F890FD4D88D81819F80
:100C3000912D1124969596959695292F220F920F16
:100C4000990F890FC7D88E81819F112D1124169578
:100C500016951695912F990F190F110F810FBAD86C
:100C600080E0B8D8B1D827960FB6F894DEBF0FBE93
:100C7000CDBFDF91CF911F9108953F924F925F9228
:100C80006F927F928F929F92AF92BF92CF92DF929C
:100C9000EF92FF920F931F93CF93DF93C091870042
:100CA000CC2309F4C3C0D0918800DD2309F4BEC071
:100CB000909011018DEF890D873308F0B7C0E0E106
:100CC000F1E01581412F6481838112DB422E532E86
:100CD000642E752E862EB72FA82F392E809189006D
:100CE000181321C0E6E8F0E0242D352D462D572DB0
:100CF000682D7B2F8A2F932DA480B580C680D78046
:100D0000E084F18402851385B4D8E1E0AD2EB12CE6
:100D1000C12CD12CE12CF12C00E010E0B3D808F06C
:100D20003EC0E0E03CC0837011F42DE601C02EE629
:100D3000E6E8F0E030E040E050E060E070E080E0C5
:100D400090E0A480B580C680D780E084F1840285DD
:100D500013858FD8A22EB32EC42ED52EE62EF72EB5
:100D6000082F192F24833583468357836087718723
:100D700082879387242D352D462D572D682D7B2F67
:100D80008A2F932D61D8E1E0AD2EB12CC12CD12C4E
:100D9000E12CF12C00E010E075D808F4E0E0EE233F
:100DA00009F444C04091100150E08CE3989E400D3E
:100DB000511D112480918600882319F04C0F511D7C
:100DC00002C04C1B5109E0E1F1E09A01A9E8B8E842
:100DD0002FD896958795929582958F7089279F70C9
:100DE00089276CE3689F9001699F300D1124CA0127
:100DF000821B930B80839A011BD8969587959295B9
:100E000082958F7089279F708927818365DB209168
:100E10001001309111014091120150911301609124
:100E200014017091150180911601B4DEDF91CF910C
:100E30001F910F91FF90EF90DF90CF90BF90AF90F8
:100E40009F908F907F906F905F904F903F9008950C
:100E5000CF938091CB00882319F01092CB00B9C0BA
:100E60006091630061113CC09091CC00913019F009
:100E7000923001F1AEC0E7EFF0E0608191E06927C8
:100E8000608390919200911101C0862F8093F800A9
:100E900080E190E028D880919200882331F081E0B1
:100EA000809366001092F80094C0E7EFF0E0808134
:100EB00081838FC08091920081110EC08091C80003
:100EC000833010F461E0680FE8ECF0E06083618348
:100ED00082E190E008D87DC081E08093660079C00F
:100EE000613009F055C0809110018E31D8F1109217
:100EF000E100809111018B3371F5E0E1F1E01182A5
:100F00008281873101F51282C381CADBC81317C001
:100F1000E0E1F1E081E0838384818C3061F481E061
:100F200084838581833619F4109215010FC08F5F79
:100F3000809315010BC08F5F8093140107C0CF5FB2
:100F4000C093130103C08F5F80931201809112013F
:100F50008093F90003C08F5F80931101809111018C
:100F6000809376001092100110928300109260001E
:100F700020E03091110140911201509113016091D4
:100F80001401709115018091160104DEA5DA21C0CB
:100F90008091CC00813019F0823039F00BC0E2E84A
:100FA000F0E081818F5F818305C0E2E8F0E081811C
:100FB00081508183E2E8F0E08181928198171CF4EE
:100FC0008381818306C020918500821714F4909359
:100FD0008300CF9108958091CB00882319F010925F
:100FE000CB000895E09163008E2F90E0FC013297D2
:100FF000E431F10508F0F8C0E55EFF4F09948091F7
:101000008300382F80931101809376002091100186
:1010100040911201509113016091140170911501DA
:1010200080911601B7DD1092E10056DADDC08091A3
:101030008300482F809312018093F90020911001C2
:1010400030911101509113016091140170911501BB
:10105000809116019FDD1092E1003EDAC5C08091BB
:101060008300782F80931501209110013091110198
:101070004091120150911301609114018091160169
:1010800089DD1092E10028DAAFC080918300682FDB
:1010900080931401209110013091110140911201AF
:1010A00050911301709115018091160173DD10921A
:1010B000E10012DA99C080918300582F80931301C8
:1010C0001092E10020911001309111014091120124
:1010D0006091140170911501809116015BDDFCD9BE
:1010E00083C061E080918300811101C060E0EFED79
:1010F000F0E06083128286E090E0F5D675C06091E2
:101100008300EFEDF0E06483128284E090E0EBD6A0
:101110006BC060918300EFEDF0E06383128285E0A5
:1011200090E0E1D661C061E080918300811101C04F
:1011300060E060930F0189E090E0D5D655C06091E2
:10114000830060930E0187E090E0CDD64DC06091A2
:10115000830060930D0188E090E0C5D645C061E052
:1011600080918300811101C060E0609386008FE070
:1011700090E0B9D6B1D938C0609183006093870000
:101180008EE090E0B0D6A8D92FC060918300609324
:1011900088008DE090E0A7D69FD926C0609183009B
:1011A0006093940081E090E09ED61EC06091830021
:1011B0006093990082E090E096D616C0609183001B
:1011C0006093980083E090E08ED60EC0609183001B
:1011D000E2E9F0E0658324E1629FC0011124948379
:1011E000838380E090E07FD680916300803121F49A
:1011F00083E18093630011C0853110F48F5F01C0DB
:1012000080E08093630009C0119215821386E8176D
:10121000F907D1F7109282000895E4EAF0E08AEA33
:1012200090E0F2CFAF92BF92CF92DF92EF92FF9217
:101230000F931F93CF93809175008111C2C086E0F8
:1012400097D99093CE008093CD00853422E0920709
:1012500034F0823093400CF0A7C0C1E001C0C2E07E
:10126000EAECF0E025813681478150856185728501
:1012700083859485A0E00FD669F463D7EAECF0E0AB
:101280002583368347835087618772878387948756
:10129000C28397C056D7EAECF0E0A580B680C7803D
:1012A000D084E184F28403851485E3D5ACE3F3D5DF
:1012B00009F008F486C08091E500882341F0EFED45
:1012C000F0E081E0818316828093CB007AC0EAEC63
:1012D000F0E0258536854785508961897289838943
:1012E0009489A0E0D8D561F42CD7EAECF0E025870A
:1012F00036874787508B618B728B838B948B61C051
:1013000020D7EAECF0E0A584B684C784D088E188D1
:10131000F28803891489ADD5243135404105510542
:10132000610571058105910509F008F44AC0EAECF0
:10133000F0E081E080838AE08093610082818130E7
:1013400019F0823019F01AC046DE18C0809163008F
:10135000811114C080919200811110C0909165009C
:1013600081E0892780936500882311F0C29A01C02B
:10137000C2986091650081E190E0B5D5E2D6EAECD3
:10138000F0E0258736874787508B618B728B838B84
:10139000948B17C08091CA00811104C08AE08093A9
:1013A000610056DDCFD80DC0EAECF0E02581368132
:1013B000478150856185728583859485A0E06BD5D2
:1013C00049F7CF911F910F91FF90EF90DF90CF9051
:1013D000BF90AF900895CF92DF92EF92FF920F935C
:1013E0001F93CF93DF93CDB7DEB727970FB6F8944F
:1013F000DEBF0FBECDBF80EDC7D480E0EBD4E4D418
:1014000081EDE0D4F4D48F77282F30E035952795FF
:10141000359527953595279535952795922F990FD1
:10142000290F220FF82EF21AE2D4282F30E035953A
:101430002795359527953595279535952795922F9D
:10144000990F290F220F082F021BD1D4282F30E02B
:101450003595279535952795359527953595279574
:10146000922F990F290F220F182F121BC0D4BFD40F
:10147000282F30E035952795359527953595279573
:1014800035952795922F990F290F220FE82EE21AF2
:10149000AED4282F30E0359527953595279535958D
:1014A000279535952795922F990F290F220FC82E32
:1014B000C21AA4D4282F30E0359527953595279565
:1014C0003595279535952795922F990F290F220F3E
:1014D000D82ED21A79D42F2D302F412F5E2D6C2D7E
:1014E0007D2D8F8190E027960FB6F894DEBF0FBE5A
:1014F000CDBFDF91CF911F910F91FF90EF90DF90C3
:10150000CF900895FF920F931F93CF93DF938CEFAB
:1015100081BB87EC87BB8FE084BB80E487B986B151
:10152000876886B90FD487EC90E00197F1F700C087
:10153000000051DF209310013093110140931201FC
:101540005093130160931401709315018093160159
:1015500082E190E0C0D4E8ECF0E08083818380E118
:1015600090E0B9D491E0811101C090E09093F70030
:10157000E7EFF0E0809112018283118282E087839D
:101580008AE590E09187808782E390E09387828765
:101590001586148614821382158286E090E09BD40F
:1015A00091E0811101C090E09093DF0085E090E030
:1015B00092D4CFEDD0E08B8384E090E08CD48C8308
:1015C0001A82198285E0898726E430E03B872A87E2
:1015D00028E230E03D872C872CEB32E03F872E87D6
:1015E0001E821D821F82E6E6F0E0108224E630E0D3
:1015F0003483238322E330E0368325831182828380
:1016000081E190E068D4182F81E0111101C080E0E1
:10161000809365008FE090E05ED491E0811101C07D
:1016200090E0909386008EE090E055D4C6E8D0E03C
:1016300089838DE090E04FD48A838AE090E04BD498
:10164000082F8B838BE090E046D4F82E8CE090E05E
:1016500042D4402F6F2D4CD62C833D834E835F8325
:10166000688779878A879B8783E090E034D4C2E9D2
:10167000D0E08E8382E090E02ED48F8381E090E0F2
:101680002AD48A83188280E090E025D48D8324E1D7
:10169000829FC00111249C838B8381E089831A86F9
:1016A0001B861C861D861E861F86188A198A88E05E
:1016B00090E011D4CDE0D1E0888387E090E00BD4B6
:1016C000898389E090E007D491E0811101C090E026
:1016D00090930F01112311F0C29A01C0C298E4EA5D
:1016E000F0E08091DF00808B8091F700818BE5E74F
:1016F000F0E010828AEA90E0948383838091110164
:101700008183EAECF0E01082118212821582168247
:101710001782108611861286138614861586168601
:101720001786108A118A128A138A148AD5D6A8D4E9
:10173000DF91CF911F910F91FF9008952F923F92CB
:101740004F925F926F927F928F929F92AF92BF92D1
:10175000CF92DF92EF92FF920F931F93CF93DF937D
:10176000FC012181211103C09598128280C0EC01F7
:101770008081882389F0959A81E08283E2D42B8747
:101780003C874D875E876F87788B898B9A8B8C819E
:1017900081508B8318826BC08281882319F1D1D448
:1017A000AB84BC84CD84DE84EF84F88809891A89EF
:1017B00060D32D803E80A22CB32CC12CD12CE12CE7
:1017C000F12C00E010E05ED308F451C095981A8225
:1017D000B8D42B873C874D875E876F87788B898B42
:1017E0009A8B45C08381882331F1ABD4AB84BC8410
:1017F000CD84DE84EF84F88809891A893AD32F8052
:101800003884A22CB32CC12CD12CE12CF12C00E07B
:1018100010E038D360F1959A81E08A8392D42B87C7
:101820003C874D875E876F87788B898B9A8B8B81FE
:1018300081508B831CC081859285892BC1F081D416
:10184000AB84BC84CD84DE84EF84F88809891A894E
:1018500010D329843A84A22CB32CC12CD12CE12C96
:10186000F12C00E010E00ED310F081E08883DF91CE
:10187000CF911F910F91FF90EF90DF90CF90BF908D
:10188000AF909F908F907F906F905F904F903F9020
:101890002F9008952F923F924F925F926F927F9276
:1018A0008F929F92AF92BF92CF92DF92EF92FF9270
:1018B0000F931F93CF93DF9380919200811110C0FB
:1018C0008091E500882321F08091DF00811108C01C
:1018D00080916500882311F0C29A78C0C29876C0C2
:1018E000809166008823A1F08091670081116BC010
:1018F000C29A27D4E6E6F0E02783308741875287F3
:1019000063877487858796878281818310825EC012
:10191000B29B54C080916700882309F457C035C03A
:10192000C298C6E6D0E08981815089830AD42F838A
:10193000388749875A876B877C878D879E8746C003
:1019400000D4E6E6F0E0A780B084C184D284E384CA
:10195000F484058516858DD225803680A22CB32C83
:10196000C12CD12CE12CF12C00E010E08BD270F1D5
:10197000C29AE7D3E6E6F0E02783308741875287B3
:10198000638774878587968721C0DBD3E6E6F0E01E
:10199000A780B084C184D284E384F484058516854D
:1019A00068D223803480A22CB32CC12CD12CE12C02
:1019B000F12C00E010E066D248F0B2CF80916700D1
:1019C0008111BECF03C0B299E0CFF8CFDF91CF91A4
:1019D0001F910F91FF90EF90DF90CF90BF90AF904D
:1019E0009F908F907F906F905F904F903F902F903F
:1019F0000895CF93DF93CDB7DEB728970FB6F8944D
:101A0000DEBF0FBECDBF7EDD0F2EF0E18F2EF1E0E9
:101A10009F2EF02D0F2EFAEA6F2EF0E07F2EF02D84
:101A20000F2EF7EF2F2EF0E03F2EF02D0F2EF5E7C3
:101A30004F2EF0E05F2EF02DCEDC2093100130937E
:101A4000110140931201509313016093140170939C
:101A5000150180931601E6DB80916300811109C1B5
:101A600092D50BD917DFAFEDB0E08C91882319F137
:101A7000F40122819091E200291314C021819091F8
:101A8000E300291314C093812091E100921799F08B
:101A90009093E100F1E0F093E5001092E000F09304
:101AA000E40009C021819091E300291721F01092F0
:101AB000E5001092E400F10190819923F1F0218179
:101AC000211110C03281D40112962C911297321735
:101AD000A1F011962C91211110C02091E300222336
:101AE00009F418C1F1011182D40112962C912283BC
:101AF000B1E0B483AA24A394A3828093B40090930A
:101B0000B5001092640080910F01882371F0D40118
:101B10008C91EDE0F1E09081891738F090910E0101
:101B2000981718F082E080936400D40111962C91EC
:101B3000BDEC2B9F812D1124869586958695880F67
:101B4000982F990F990F890F281331C0F4018081C4
:101B5000833068F5D20111968C911197821739F173
:101B600011962C931197E1E0EC93EBD2D2011596EC
:101B70002C93159716963C93169717964C93179798
:101B800018965C93189719966C9319971A967C93EC
:101B90001A971B968C931B971C969C931C971296D6
:101BA0001C9212978C91882309F484C00AC0F20118
:101BB0008081882309F47EC08281843610F01082EF
:101BC00079C0BFD2D2011596AC9015971696BC90ED
:101BD00016971796CC9017971896DC901897199629
:101BE000EC9019971A96FC901A971B960C911B97DC
:101BF0001C961C911C973DD11396ED91FC91149766
:101C00005F01C12CD12CE12CF12C8701E983BA8230
:101C1000CB82DC82ED82FE820F831887C12CD12C0F
:101C2000E12CF12C00E010E02DD1F8F012968C910F
:101C30001297855F12968C9384D2D20115962C93BD
:101C4000159716963C93169717964C9317971896D8
:101C50005C93189719966C9319971A967C931A9718
:101C60001B968C931B971C969C93BFEFB0936400BC
:101C700021C0F4018081909160008917A9F08093C0
:101C800060008091610081110CC010926300E4EA51
:101C9000F0E0119215821386E615F705D1F752D4BC
:101CA00003C0815080936100A2E8B0E08C91811163
:101CB00001C010D58091E000811116C08091E5002F
:101CC000882349F0EFEDF0E08081882321F0E1E006
:101CD000A6E6B0E0EC93D10114968C9181110CC072
:101CE00084EE90E02BDD08C01092E500E2E9F0E020
:101CF000808181110DC009C0A2E9B0E08C918111F1
:101D000007C08091E500811103C08AEF90E016DDE5
:101D100054D692CE8093B400B1E0B093B500109247
:101D2000640080910F01811104C010CFF401218162
:101D30000DCFD4018C91EDE0F1E09081891708F08E
:101D4000EDCEF4CF11B888E880B9089594EA96BF33
:101D500006B607FEFDCF91B1987F983011F0903113
:101D600079F483B984E886BF06B607FEFDCF91B14A
:101D7000987F983139F081E0903429F480E008951B
:101D800081E0089580E0089524EA34E844E926BF1C
:101D900006B607FEFDCF91B1987F983011F09031D3
:101DA000B1F783B936BF06B607FEFDCF91B1987F74
:101DB000903211F0983529F446BF06B604FCFDCFE9
:101DC000E6CF0895C3DF089584E986BF06B604FC14
:101DD000FDCF089583B984E886BF06B607FEFDCF20
:101DE00091B1987F81E0983209F480E0089584EC05
:101DF00086BF06B607FEFDCF83B1089584E886BF8F
:101E000006B607FEFDCF83B1089597FB072E16F4A3
:101E1000009406D077FD08D04AD007FC05D03EF4E8
:101E2000909581959F4F0895709561957F4F089586
:101E3000A29FB001B39FC001A39F01D0B29F700DBC
:101E4000811D1124911D08952A0D3B1D4C1D5D1D02
:101E50006E1D7F1D801F911F08950024A7FD009413
:101E60002A0F301D401D501D601D701D801D901DCE
:101E700008952A193B094C095D096E097F09800BF9
:101E8000910B08952A153B054C055D056E057F05F0
:101E90008007910708950024A7FD00942A173005B4
:101EA0004005500560057005800590050895AA1B42
:101EB000BB1B51E107C0AA1FBB1FA617B70710F035
:101EC000A61BB70B881F991F5A95A9F78095909567
:101ED000BC01CD010895E199FECF9FBB8EBBE09A76
:101EE00099278DB30895262FE199FECF9FBB8EBB16
:101EF000E09A01970DB2021631F02DBB0FB6F8949F
:0C1F0000E29AE19A0FBE0895F894FFCF1A
:00000001FF
