:100000001BC02AC029C028C027C026C025C024C0C4
:1000100023C02BC021C020C01FC01EC01DC01CC0DB
:100020001BC01AC019C005C51BC570C57DC586C5D6
:100030002EC542C556C58CC511241FBECFE5D4E0E0
:10004000DEBFCDBF21E0A0E6B0E001C01D92A5312A
:10005000B207E1F741D9B5CBD3CF83B7826083BF75
:1000600089B7816089BF789408951F920F920FB667
:100070000F9211242F933F934F935F936F937F932E
:100080008F939F93AF93EF93FF93E0910B01F091C8
:100090000C01F395F0930C01E0930B01E83E83E033
:1000A000F80760F120910D0130910E0140910F0190
:1000B0005091100160911101709112018091130112
:1000C00090911401A1E026DBE85EF340E83EA3E056
:1000D000FA07C0F720930D0130930E0140930F01F2
:1000E00050931001609311017093120180931301DA
:1000F00090931401F0930C01E0930B01FF91EF91A9
:10010000AF919F918F917F916F915F914F913F91AF
:100110002F910F900FBE0F901F901895F89420917B
:100120000D0130910E0140910F015091100160912D
:100130001101709112018091130190911401789432
:100140000895E8E9F0E0128A138A148A158A882350
:1001500039F0EEEAF0E0982F917092938695D9F7F6
:1001600008955F926F927F928F929F92AF92BF920B
:10017000CF92DF92EF92FF920F931F93CF93DF9373
:100180008091BC00813059F028F0823079F08330C2
:10019000A1F01AC082E08A95F1F700C07EC0E3E1C9
:1001A000F2E03197F1F700C0000077C089E294E0F7
:1001B0000197F1F700C0000070C0EFE3F6E031975F
:1001C000F1F700C0000069C0A89AA99AAA9A809184
:1001D0006300882309F44AC0C8E9D0E00F2EFEE985
:1001E0006F2EF0E07F2EF02D4E015524539489910F
:1001F0008823C1F193DFF401A48CB58CC68CD78C15
:10020000E0A0F1A002A113A191DA25393105410541
:100210005105610571058105910511F108F15D82B6
:100220007DDFF401A48CB58CC68CD78CE0A0F1A046
:1002300002A113A17BDA2532324041055105610547
:1002400071058105910579F070F068DFF401248F64
:10025000358F468F578F60A371A382A393A303C0EA
:100260001D8201C01D82C615D70509F68FE396E0F1
:100270000197F1F700C00000C79A939A929AC69A24
:10028000969A979AC09AC19AAB989498EFE1F3E046
:100290003197F1F700C0000008C0A89AA99AAA9A5D
:1002A00080916300811198CFE1CFDF91CF911F91B1
:1002B0000F91FF90EF90DF90CF90BF90AF909F9005
:1002C0008F907F906F905F900895EEEBF0E010823A
:1002D000128211821582168217821086118612866A
:1002E00013861486158616861786108A118A128A36
:1002F000138A148A089597B1907E8F71892B87B9DC
:10030000369A3699FECF84B195B10895AF92BF92D7
:10031000CF92DF92EF92FF920F931F93CF93DF93D1
:1003200087E0E9DF2091890030918A0082179307E6
:100330004CF180918700882329F1F0DEE6E8F0E0B7
:10034000A284B384C484D584E684F78400891189A7
:10035000EDD9273833414105510561057105810506
:10036000910561F058F081E0809386001092BC0006
:1003700080916700811128C0C29826C080918700B3
:1003800081110DC0C6E8D0E081E08983C7DE2A87ED
:100390003B874C875D876E877F87888B998B8091A1
:1003A0008600882389F010928600ECEBF0E08181D2
:1003B000808380916700811107C080916500882348
:1003C00011F0C29A01C0C298DF91CF911F910F9195
:1003D000FF90EF90DF90CF90BF90AF900895809105
:1003E0000801823031F480910901837061F08CE161
:1003F0000895883020F480FF08C08FE1089580FDC3
:1004000006C08FE108958DE108958EE108958EE193
:100410000895CF93809163009FEF980F933018F465
:100420001092640021C09CEF980F933020F491E06B
:100430009093640019C099EF980F933020F492E0E4
:100440009093640011C08A3079F483E08093640053
:100450008093620081E08093820046E050E084E077
:1004600090E024E0C3E018C090E0029663E070E002
:100470003ED9C3E0C81BC093620081E08093820034
:100480004C2F440F2EEF240F822F90E0042E000CEF
:10049000550B841795075CF431E0FC01E856FF4FDB
:1004A00030832F5F822F90E084179507B4F38091FB
:1004B0006400811120C0C23071F0C330A9F0C13096
:1004C00009F070C0E2E8F0E080910601818387E1E5
:1004D0008283138267C0E2E8F0E0809105018183A6
:1004E0008BE3828313825EC0E2E8F0E08091040136
:1004F0008183108257C0823031F571DFC23081F0C4
:10050000C330C1F0C13009F04DC090910701891787
:1005100008F4982FE2E8F0E091838283138242C0CE
:10052000E2E8F0E08091080181838CE0828381E041
:10053000838338C0E2E8F0E080910901818383E69B
:10054000828313822FC0813019F58091D30080936C
:10055000A800C23069F0C330A1F0C13019F5E2E85B
:10056000F0E08091D600818387E1828313821AC0F4
:10057000E2E8F0E08091D70081838BE382831382ED
:1005800011C0E2E8F0E0818381E0828313820AC037
:10059000833041F4E2E8F0E080918B00818382E3D4
:1005A00082831382CF910895880F825090E06A3041
:1005B000B8F0FC01E856FF4F2DEC629F212D11246D
:1005C000269526952695268B0196220F322F330FDE
:1005D000330F230F621BFC01E856FF4F668B089513
:1005E000FC01E856FF4F168A0196F5CFCF92DF92B5
:1005F000EF92FF920F931F93CF93DF93809164004C
:100600008130B9F02CF48F3FE1F0882331F033C012
:10061000823049F08330D1F02EC0E4E0F1E0628115
:10062000D181C0812BC0E4E0F1E06381D481C58138
:1006300025C0E3EDF0E06381D481C081C093A800C0
:100640001DC060917700C62FD62F18C0C0918B00B7
:100650000091830084E108028001112487E04BDED1
:100660008017910724F4C29AD0E060E007C0C298D6
:10067000D0E060E003C0C0E0D0E060E081E094DF63
:100680006D2F82E091DF6C2F83E08EDF809163001D
:10069000882309F46FC0609183008091620084DF39
:1006A00069C08601899168019FEFC91AD90A811131
:1006B00024C08F8546DD8D81882311F0949A01C076
:1006C0009498F7018589813011F4969A01C0969823
:1006D000F7018489813011F4979A01C09798F70146
:1006E0008389813011F4C09A01C0C098F7018289D2
:1006F000813011F4C19A01C0C1988A81811124C04E
:100700008A891FDD8885882311F0AB9A01C0AB98D8
:10071000F7018589813011F4C79A01C0C798F701A4
:100720008489813011F4939A01C09398F7018389E9
:10073000813011F4929A01C09298F7018289813038
:1007400011F4C69A01C0C6980130110539F020F0A5
:100750000230110529F007C0A89817C0A99815C044
:10076000AA98FFDC14C0FDDCF3E0CF16D1040CF432
:1007700098CF0DC0CEE9D0E000E010E00F2EF8E9F0
:10078000EF2EF0E0FF2EF02D8DCFEBDC8ACFDF9146
:10079000CF911F910F91FF90EF90DF90CF90089530
:1007A0001F93CF93DF93CDB7DEB727970FB6F8949B
:1007B000DEBF0FBECDBF29833A834B835C836D833D
:1007C0007E8380ED53D780E077D789811DEC819FB0
:1007D000912D1124969596959695292F220F920F7B
:1007E000990F890F69D78A81819F912D1124969540
:1007F00096959695292F220F920F990F890F5CD706
:100800008B81819F912D1124969596959695292FF0
:10081000220F920F990F890F4FD781E04DD78C810E
:10082000819F912D1124969596959695292F220FAB
:10083000920F990F890F40D78D81819F912D11249F
:10084000969596959695292F220F920F990F890FBD
:1008500033D78E81819F112D1124169516951695EB
:10086000912F990F190F110F810F26D780E024D7F0
:100870001DD727960FB6F894DEBF0FBECDBFDF9110
:10088000CF911F910895CF938091BF00882319F0D5
:100890001092BF00B8C06091630061113CC090919C
:1008A000C000913019F0923001F1ADC0EBEEF0E0F4
:1008B000608191E06927608390918600911101C069
:1008C000862F8093EC0084E090E06AD780918600C8
:1008D000882331F081E0809366001092EC0093C091
:1008E000EBEEF0E0808181838EC0809186008111E3
:1008F0000EC08091BC00833010F461E0680FECEB17
:10090000F0E06083618386E090E04AD77CC081E0BC
:100910008093660078C0613009F054C08091040172
:100920008E31D8F11092D500809105018B3371F58D
:10093000E4E0F1E011828281873101F51282C38106
:100940004EDDC81317C0E4E0F1E081E083838481C9
:100950008C3061F481E084838581833619F41092B0
:1009600009010FC08F5F809309010BC08F5F8093D7
:10097000080107C0CF5FC093070103C08F5F80935A
:100980000601809106018093ED0003C08F5F809384
:100990000501809105018093760010920401109268
:1009A00083001092600020E0309105014091060123
:1009B00050910701609108017091090180910A012D
:1009C000EFDE21C08091C000813019F0823039F013
:1009D0000BC0E2E8F0E081818F5F818305C0E2E82F
:1009E000F0E0818181508183E2E8F0E081819281B1
:1009F00098171CF48381818306C02091850082179B
:100A000014F490938300CF9108958091BF008823C0
:100A100019F01092BF000895E09163008E2F90E0CE
:100A2000FC013297E930F10508F0A0C0ED5EFF4F00
:100A3000099480918300382F80930501809376007C
:100A40002091040140910601509107016091080135
:100A50007091090180910A01A3DE1092D50086C031
:100A600080918300482F809306018093ED002091B0
:100A700004013091050150910701609108017091C6
:100A8000090180910A018CDE1092D5006FC080911F
:100A90008300782F80930901209104013091050192
:100AA00040910601509107016091080180910A016F
:100AB00077DE1092D5005AC080918300682F809312
:100AC00008012091040130910501409106015091E7
:100AD00007017091090180910A0162DE1092D50030
:100AE00045C080918300582F809307011092D50054
:100AF00020910401309105014091060160910801A7
:100B00007091090180910A014BDE30C061E0809153
:100B10008300811101C060E0E3EDF0E060831282A8
:100B200083E090E03DD622C060918300E3EDF0E0E9
:100B30006483128281E090E033D618C06091830014
:100B4000E3EDF0E06383128282E090E029D60EC0EC
:100B500060918300E6E8F0E0658324E1629FC001D4
:100B600011249483838380E090E01AD680916300FF
:100B70008A3010F48F5F01C080E080936300E8E961
:100B8000F0E08EE990E0119215821386E817F907DC
:100B9000D1F7109282000895AF92BF92CF92DF9268
:100BA000EF92FF920F931F93CF9380917500811165
:100BB000C2C086E0A0DB9093C2008093C100853460
:100BC00022E0920734F0823093400CF0A7C0C1E0DD
:100BD00001C0C2E0EEEBF0E025813681478150850F
:100BE0006185728583859485A0E0B2D569F496DA33
:100BF000EEEBF0E025833683478350876187728769
:100C000083879487C28397C089DAEEEBF0E0A580F2
:100C1000B680C780D084E184F2840385148586D5AC
:100C2000ACE396D509F008F486C08091D9008823FA
:100C300041F0E3EDF0E081E0818316828093BF0014
:100C40007AC0EEEBF0E025853685478550896189CD
:100C5000728983899489A0E07BD561F45FDAEEEB39
:100C6000F0E0258736874787508B618B728B838BAB
:100C7000948B61C053DAEEEBF0E0A584B684C784B0
:100C8000D088E188F2880389148950D52431354011
:100C900041055105610571058105910509F008F4CB
:100CA0004AC0EEEBF0E081E080838AE0809361004F
:100CB0008281813019F0823019F01AC0A6DE18C086
:100CC00080916300811114C080918600811110C051
:100CD0009091650081E0892780936500882311F059
:100CE000C29A01C0C2986091650085E090E058D535
:100CF00015DAEEEBF0E0258736874787508B618B5E
:100D0000728B838B948B17C08091BE00811104C0BD
:100D10008AE080936100B7DDD8DA0DC0EEEBF0E039
:100D200025813681478150856185728583859485CB
:100D3000A0E00ED549F7CF911F910F91FF90EF9052
:100D4000DF90CF90BF90AF900895CF92DF92EF9257
:100D5000FF920F931F93CF93DF93CDB7DEB7279703
:100D60000FB6F894DEBF0FBECDBF80ED7FD480E01C
:100D7000A3D49CD481ED98D4ACD48F77282F30E0C5
:100D8000359527953595279535952795359527954B
:100D9000922F990F290F220FF82EF21A9AD4282F8A
:100DA00030E03595279535952795359527953595D7
:100DB0002795922F990F290F220F082F021B89D4F4
:100DC000282F30E03595279535952795359527952A
:100DD00035952795922F990F290F220F182F121B47
:100DE00078D477D4282F30E03595279535952795F9
:100DF0003595279535952795922F990F290F220F15
:100E0000E82EE21A66D4282F30E0359527953595DF
:100E100027953595279535952795922F990F290F69
:100E2000220FC82EC21A5CD4282F30E035952795A2
:100E3000359527953595279535952795922F990FB7
:100E4000290F220FD82ED21A31D42F2D302F412F17
:100E50005E2D6C2D7D2D8F8190E027960FB6F89436
:100E6000DEBF0FBECDBFDF91CF911F910F91FF90DD
:100E7000EF90DF90CF9008951F93CF93DF938CEF87
:100E800081BB87EC87BB8FE084BB80E487B986B1E8
:100E9000876886B9C9D387EC90E00197F1F700C065
:100EA000000053DF209304013093050140930601B5
:100EB00050930701609308017093090180930A0120
:100EC00086E090E065D4ECEBF0E08083818384E001
:100ED00090E05ED491E0811101C090E09093EB002E
:100EE000EBEEF0E0809106018283118282E087833D
:100EF0008AE590E09187808782E390E093878287FC
:100F00001586148614821382158283E090E040D403
:100F100091E0811101C090E09093D30082E090E0D5
:100F200037D4C3EDD0E08B8381E090E031D48C8363
:100F30001A82198285E0898726E430E03B872A8778
:100F400028E230E03D872C872CEB32E03F872E876C
:100F50001E821D821F82E6E6F0E0108224E630E069
:100F60003483238322E330E0368325831182828316
:100F700085E090E00DD4182F81E0111101C080E0D0
:100F800080936500C6E8D0E0188280E090E000D44D
:100F90008D8324E1829FC00111249C838B8381E097
:100FA00089831A861B861C861D861E861F86188AC4
:100FB000198AE1E0F1E093E3908395E391838283E2
:100FC000112311F0C29A01C0C298E8E9F0E08091C3
:100FD000D300808B8091EB00818BE5E7F0E01082FD
:100FE0008AEA90E094838383809105018183EEEB0C
:100FF000F0E010821182128215821682178210860A
:101000001186128613861486158616861786108A10
:10101000118A128A138A148A20D8DF91CF911F91E6
:1010200008952F923F924F925F926F927F928F928C
:101030009F92AF92BF92CF92DF92EF92FF920F9367
:101040001F93CF93DF93FC012181211103C0959859
:10105000128280C0EC018081882389F0959A81E01A
:1010600082835CD82B873C874D875E876F87788B20
:10107000898B9A8B8C8181508B8318826BC0828183
:10108000882319F14BD8AB84BC84CD84DE84EF84F3
:10109000F88809891A894AD32D803E80A22CB32C66
:1010A000C12CD12CE12CF12C00E010E048D308F445
:1010B00051C095981A8232D82B873C874D875E871E
:1010C0006F87788B898B9A8B45C08381882331F118
:1010D00025D8AB84BC84CD84DE84EF84F88809896C
:1010E0001A8924D32F803884A22CB32CC12CD12C64
:1010F000E12CF12C00E010E022D360F1959A81E020
:101100008A830CD82B873C874D875E876F87788BC7
:10111000898B9A8B8B8181508B831CC081859285B2
:10112000892BC1F0FBD7AB84BC84CD84DE84EF84F3
:10113000F88809891A89FAD229843A84A22CB32C16
:10114000C12CD12CE12CF12C00E010E0F8D210F0F1
:1011500081E08883DF91CF911F910F91FF90EF90F5
:10116000DF90CF90BF90AF909F908F907F906F90C7
:101170005F904F903F902F9008952F923F924F9203
:101180005F926F927F928F929F92AF92BF92CF9217
:10119000DF92EF92FF920F931F93CF93DF93809193
:1011A0008600811110C08091D900882321F08091A0
:1011B000D300811108C080916500882311F0C29A84
:1011C00078C0C29876C0809166008823A1F0809193
:1011D000670081116BC0C29AA1D7E6E6F0E02783D1
:1011E0003087418752876387748785879687828196
:1011F000818310825EC0B29B54C0809167008823B7
:1012000009F457C035C0C298C6E6D0E08981815044
:10121000898384D72F83388749875A876B877C8750
:101220008D879E8746C07AD7E6E6F0E0A780B08437
:10123000C184D284E384F4840585168577D2258021
:101240003680A22CB32CC12CD12CE12CF12C00E047
:1012500010E075D270F1C29A61D7E6E6F0E027831C
:10126000308741875287638774878587968721C037
:1012700055D7E6E6F0E0A780B084C184D284E38449
:10128000F4840585168552D223803480A22CB32C99
:10129000C12CD12CE12CF12C00E010E050D248F010
:1012A000B2CF809167008111BECF03C0B299E0CF69
:1012B000F8CFDF91CF911F910F91FF90EF90DF90CA
:1012C000CF90BF90AF909F908F907F906F905F90E6
:1012D0004F903F902F900895CF93DF93CDB7DEB717
:1012E00028970FB6F894DEBF0FBECDBFC5DD0F2E19
:1012F000F4E08F2EF1E09F2EF02D0F2EFEE96F2EE1
:10130000F0E07F2EF02D0F2EFBEE2F2EF0E03F2E83
:10131000F02D0F2EF5E74F2EF0E05F2EF02D15DDAE
:101320002093040130930501409306015093070177
:10133000609308017093090180930A012DDC80916C
:101340006300811108C1E2D718DFA3EDB0E08C91F2
:10135000882319F1F40122819091D600291314C039
:1013600021819091D700291314C093812091D50039
:10137000921799F09093D500F1E0F093D900109274
:10138000D400F093D80009C021819091D70029178B
:1013900021F01092D9001092D800F1019081992388
:1013A000F1F02181211110C03281D40112962C91CB
:1013B00012973217A1F011962C91211110C0209193
:1013C000D700222309F418C1F1011182D401129629
:1013D0002C912283B1E0B483AA24A394A3828093A6
:1013E000A8009093A90010926400809103018823C3
:1013F00071F0D4018C91E1E0F1E09081891738F02F
:1014000090910201981718F082E080936400D40153
:1014100011962C91BDEC2B9F812D112486958695DC
:101420008695880F982F990F990F890F281331C02F
:10143000F4018081833068F5D20111968C91119767
:10144000821739F111962C931197E1E0EC9366D64F
:10145000D20115962C93159716963C9316971796CE
:101460004C93179718965C93189719966C93199745
:101470001A967C931A971B968C931B971C969C9399
:101480001C9712961C9212978C91882309F484C0A1
:101490000AC0F2018081882309F47EC082818436EB
:1014A00010F0108279C03AD6D2011596AC901597FB
:1014B0001696BC9016971796CC9017971896DC90B6
:1014C00018971996EC9019971A96FC901A971B96F4
:1014D0000C911B971C961C911C9728D11396ED918B
:1014E000FC9114975F01C12CD12CE12CF12C8701C8
:1014F000E983BA82CB82DC82ED82FE820F83188779
:10150000C12CD12CE12CF12C00E010E018D1F8F026
:1015100012968C911297855F12968C93FFD5D2010B
:1015200015962C93159716963C93169717964C93F1
:10153000179718965C93189719966C9319971A96A3
:101540007C931A971B968C931B971C969C93BFEFCA
:10155000B093640021C0F4018081909160008917EC
:10156000A9F0809360008091610081110CC01092FD
:101570006300E8E9F0E0119215821386E615F7059D
:10158000D1F7A3D603C0815080936100A2E8B0E0F8
:101590008C91811101C03DD78091D400811116C07A
:1015A0008091D900882349F0E3EDF0E08081882321
:1015B00021F0E1E0A6E6B0E0EC93D10114968C9125
:1015C00081110CC088ED90E02CDD08C01092D9008C
:1015D000E6E8F0E0808181110DC009C0A6E8B0E026
:1015E0008C91811107C08091D900811103C08EEECA
:1015F00090E017DDFBD793CE8093A800B1E0B093C5
:10160000A9001092640080910301811104C010CFE1
:10161000F40121810DCFD4018C91E1E0F1E09081C2
:10162000891708F0EDCEF4CF11B888E880B9089595
:1016300094EA96BF06B607FEFDCF91B1987F983029
:1016400011F0903179F483B984E886BF06B607FEBD
:10165000FDCF91B1987F983139F081E0903429F431
:1016600080E0089581E0089580E0089524EA34E858
:1016700044E926BF06B607FEFDCF91B1987F9830AA
:1016800011F09031B1F783B936BF06B607FEFDCF32
:1016900091B1987F903211F0983529F446BF06B683
:1016A00004FCFDCFE6CF0895C3DF089584E986BF2B
:1016B00006B604FCFDCF089583B984E886BF06B65C
:1016C00007FEFDCF91B1987F81E0983209F480E068
:1016D000089584EC86BF06B607FEFDCF83B108955A
:1016E00084E886BF06B607FEFDCF83B1089597FB59
:1016F000072E16F4009406D077FD08D035D007FCED
:1017000005D03EF4909581959F4F08957095619511
:101710007F4F08950024A7FD00942A0F301D401D1F
:10172000501D601D701D801D901D08952A193B09D4
:101730004C095D096E097F09800B910B08952A15EC
:101740003B054C055D056E057F05800791070895F3
:101750000024A7FD00942A173005400550056005B8
:101760007005800590050895AA1BBB1B51E107C0B9
:10177000AA1FBB1FA617B70710F0A61BB70B881F21
:10178000991F5A95A9F780959095BC01CD010895B0
:10179000E199FECF9FBB8EBBE09A99278DB3089548
:1017A000262FE199FECF9FBB8EBBE09A01970DB229
:1017B000021631F02DBB0FB6F894E29AE19A0FBEF3
:0617C0000895F894FFCF2C
:00000001FF
