S00D0000636C6F636B2E737265630B
S113000012C02CC02BC02AC029C028C027C026C0BB
S113001025C02DC023C022C021C020C01FC01EC0C7
S11300201DC01CC01BC011241FBECFE5D4E0DEBF21
S1130030CDBF10E0A0E6B0E0E6E6F5E002C0059032
S11300400D92A236B107D9F720E0A2E6B0E001C0D4
S11300501D92A03AB207E1F742D283C2D1CF83B74F
S1130060826083BF89B7816089BF789408951F92A5
S11300700F920FB60F921124DF92EF92FF920F931B
S11300801F932F933F934F935F936F937F938F931C
S11300909F93AF93BF93CF93DF93EF93FF93E0913D
S11300A09600F0919700F395D0909800E090990015
S11300B0F0909A0000919B0010919C00D0919D00BB
S11300C0C0919E00B0919F002D2D3E2D4F2D502F9D
S11300D0612F7D2F8C2F9B2FA1E02ED2E83EA3E031
S11300E0FA0758F0E85EF340D22EE32EF42E052FE3
S11300F0162FD72FC82FB92FE7CFD0929800E092B0
S11301009900F0929A0000939B0010939C00D09366
S11301109D00C0939E00B0939F00F0939700E093DE
S11301209600FF91EF91DF91CF91BF91AF919F9195
S11301308F917F916F915F914F913F912F911F917B
S11301400F91FF90EF90DF900F900FBE0F901F90D4
S11301501895F894209198003091990040919A0054
S113016050919B0060919C0070919D0080919E0035
S113017090919F00789408958CEF81BB87EC87BBA6
S11301808FE084BB80E487B986B1876886B967CF7E
S1130190109268001092690010926A0010926B002D
S11301A0ECE6F0E0882329F0982F917092938695DD
S11301B0F9CF08957F928F929F92AF92BF92CF9280
S11301C0DF92EF92FF920F931F93CF93DF9380916F
S11301D06000813079F048F0823089F08330A9F4EE
S11301E0EFE3F6E03197F1F70EC082E08A95F1F77C
S11301F000C00BC0E3E1F2E03197F1F704C089E2FB
S113020094E00197F1F700C00000A89AA99AAA9A6D
S113021080917A00811124C08FE396E00197F1F771
S113022000C00000C79A939A929AC69A969A979A8F
S1130230C09AC19AAB989498EFE1F3E03197F1F743
S113024000C00000DF91CF911F910F91FF90EF90BC
S1130250DF90CF90BF90AF909F908F907F90089544
S113026082E8882E80E0982ECCE7D0E0772473943F
S1130270F40181914F01882309F44BC06ADFA090F7
S11302806C00B0906D00C0906E00D0906F00E09054
S11302907000F0907100009172001091730058D1B9
S11302A02539310541055105610571058105910522
S11302B081F178F178824DDFA0906C00B0906D00F0
S11302C0C0906E00D0906F00E0907000F0907100CC
S11302D000917200109173003BD1253232404105E8
S11302E051056105710581059105A1F098F031DF93
S11302F020936C0030936D0040936E0050936F0018
S113030060937000709371008093720090937300F7
S113031001C018822196F0E0C238DF0709F0A8CFA7
S11303207BCFCF92DF92EF92FF920F931F93CF93E5
S1130330DF938CE7C82E80E0D82E92E6E92E90E079
S1130340F92E08E810E0C0E0D0E0F60181916F01D9
S1130350811126C0F70180811BDFF8018081882389
S113036011F0949A01C0949880916B00813011F43B
S1130370969A01C0969880916A00813011F4979AF8
S113038001C0979880916900813011F4C09A01C02E
S1130390C09880916800813011F4C19A01C0C1985D
S11303A0F6018281811126C0F7018381F1DEF80113
S11303B08381882311F0AB9A01C0AB9880916B00C4
S11303C0813011F4C79A01C0C79880916A008130C6
S11303D011F4939A01C0939880916900813011F4CB
S11303E0929A01C0929880916800813011F4C69A63
S11303F001C0C698C130D10529F0C230D10521F021
S1130400A89803C0A99801C0AA98D4DE2196FFEF4A
S1130410EF1AFF0A0F5F1F4FC330D10509F095CFC4
S1130420DF91CF911F910F91FF90EF90DF90CF90CC
S11304300895E8E8F0E080918E0084838091610063
S1130440858310927900089587B1807E866087B98C
S1130450369A3699FECF84B195B1A0E0B0E080938E
S1130460740090937500A0937600B093770008957C
S1130470880F8250E82FF0E0EE59FF4F6A3018F4ED
S1130480108261830895862F6AE04AD08083918325
S113049008951092620081E08093630010926400DA
S11304A082E0809365001092660083E08093670089
S11304B080917800882391F090917900911107C080
S11304C0833029F490918F0090937B0004C09FEFB8
S11304D0980F933018F460917B00CACF08954CDED6
S11304E081E08093910082E08093900083E0809388
S11304F08F0084E08093950085E08093920086E0ED
S11305008093930082E18093940080917A0081111A
S1130510FECF109278008DDFBCDF96DF02DFF5CFCF
S1130520991B79E004C0991F961708F0961B881F41
S11305307A95C9F7809508950024A7FD00942A0FA1
S1130540301D401D501D601D701D801D901D08959F
S11305502A193B094C095D096E097F09800B910B2F
S10905600895F894FFCF9A
S105056601018D
S9030000FC
